:1000000068090010E50000005501000055010000DE
:1000100055010000550100005501000000000000DE
:10002000000000000000000000000000550100007A
:100030005501000000000000550100005D010000B6
:1000400059060000450C0000710C00009D0C0000DA
:10005000C90C0000F50C0000150D0000350D000066
:10006000550D0000190C0000690B0000950B0000F5
:10007000C10B00003D0B00005501000055010000C0
:1000800055010000ED0B0000550100005501000076
:1000900055010000890100009D0500005501000088
:1000A00055010000550100005501000055010000F8
:1000B00055010000550100005501000055010000E8
:1000C00055010000550100005501000055010000D8
:1000D00055010000550100005501000055010000C8
:1000E0005501000080B582B000AF154B7B60154B09
:1000F0003B600BE07B681A683B681A603B6803F161
:1001000004033B607B6803F104037B603A680E4B99
:100110009A42EFD30D4B3B6007E03B684FF0000283
:100120001A603B6803F104033B603A68084B9A424B
:10013000F3D300F089FA07F10807BD4680BD00BF80
:10014000740D0000000000100000001000000010FE
:100150006401001080B400AFFEE700BF98B500AFA7
:10016000084B1B68002B0BD0064B1C684FF000009F
:100170004FF000014FF000024FF00003A04700E0F5
:10018000FEE798BD0000001090B583B000AF4FF0BF
:1001900000037B604FF000037B6016E00E4B7A6833
:1001A00053F82230002B0CD00B4B7A6853F82240C6
:1001B0004FF000004FF000014FF000024FF000033D
:1001C000A0477B6803F101037B607B683F2BE5D987
:1001D00007F10C07BD4690BD0400001080B485B047
:1001E00000AF78604FF00003FB604FF00003BB608E
:1001F0004FF00003FB6010E0FB684FF0010202FAD1
:1002000003F3BB607A68BB681340002B01D0FB6826
:1002100008E0FB6803F10103FB60FB681F2BEBD9CF
:100220004FF0FF33184607F11407BD4680BC7047F6
:1002300080B586B000AFF860B9607A604FF0000317
:100240007B614FF000037B611AE07B694FF0010294
:1002500002FA03F31A46BB681340002B0CD07B68EC
:10026000002B09D07B694FF0010202FA03F3F86812
:1002700019467A6800F07CF87B6903F101037B6121
:100280007B691F2BE1D907F11807BD4680BD00BF70
:1002900080B586B000AFF860B9607A604FF00003B7
:1002A0007B614FF000033B61FB682C4A934218D0FE
:1002B0002A4A934206D82A4A93420AD0294A9342AC
:1002C0000BD01AE0284A93420FD0284A934210D00C
:1002D00013E04FF000037B610FE04FF008037B61F8
:1002E0000BE04FF010037B6107E04FF018037B61D8
:1002F00003E04FF020037B6100BFB868FFF76EFF9B
:10030000B860BB680F2B07D9BB68A3F11003BB60B3
:100310007B6903F104037B617B6903F1804303F58F
:1003200030331B683B61BB684FEA43034FF0030265
:1003300002FA03F36FEA03033A6913403B613A6937
:100340007B6813433B617B6903F1804303F53033E2
:100350003A691A6007F11807BD4680BD40C0092000
:1003600000C0092020C0092060C0092080C00920E9
:1003700080B588B000AFF860B9607A604FF00003D4
:10038000FB614FF00003BB614FF000037B614FF056
:1003900000033B617B6803F00203002B13D07B68F2
:1003A00003F00103002B06D0FB68FA681168BA68F5
:1003B0000A431A6007E0FB68FA681168BA686FEAD6
:1003C00002020A401A607B6803F01003002B62D01F
:1003D000FB685D4A934218D05B4A934206D85B4A59
:1003E00093420AD05A4A93420BD01AE0594A934298
:1003F0000FD0594A934210D013E04FF04003FB61F5
:100400000FE04FF04803FB610BE04FF05003FB613E
:1004100007E04FF05803FB6103E04FF06003FB611E
:1004200000BFB868FFF7DAFEB861BB690F2B07D9C8
:10043000FB6903F10403FB61BB69A3F11003BB611A
:10044000FB6903F1804303F530331B687B61BB69B3
:100450004FEA43034FF0030202FA03F36FEA030388
:100460007A6913407B617B6803F00C033B613B6955
:100470004FEA9302BB694FEA430302FA03F33B617D
:100480007A693B6913437B61FB6903F1804303F5A0
:1004900030337A691A607B6803F04003002B4ED03A
:1004A000FB68294A934218D0274A934206D8274A24
:1004B00093420AD0264A93420BD01AE0254A93422F
:1004C0000FD0254A934210D013E04FF06803FB6130
:1004D0000FE04FF06C03FB610BE04FF07003FB612A
:1004E00007E04FF07403FB6103E04FF07803FB611A
:1004F00000BF7B6803F02003002B0FD0FB6903F1E2
:10050000804303F530331A46FB6903F1804303F55A
:1005100030331968BB680B43136010E0FB6903F1CB
:10052000804303F530331A46FB6903F1804303F53A
:1005300030331968BB686FEA03030B40136007F19F
:100540002007BD4680BD00BF40C0092000C0092073
:1005500020C0092060C0092080C0092080B485B077
:1005600000AFF860B9607A60FB6803F11003BA6805
:100570006FEA02021A607B68002B05D0FB6803F16A
:100580001803BA681A6004E0FB6803F11C03BA6838
:100590001A6007F11407BD4680BC704798B500AFDC
:1005A000084B1B68002B0BD0064B1C684FF000005B
:1005B0004FF000014FF000024FF00003A04700E0B1
:1005C000FEE798BD1401001080B500AF1A484FF047
:1005D0004C0100F013F9194800F00CF94FF022001B
:1005E00000F090FA16484FF008014FF00002FFF7B4
:1005F0004FFE13484FF008014FF00302FFF7B8FE1B
:100600000F484FF008014FF00302FFF711FE0C48AE
:100610004FF008014FF00102FFF7A0FF094800F07A
:10062000E9F807484FF008014FF00002FFF796FF86
:10063000044800F0DFF8EAE700E1F505FFFF0F00EE
:1006400040C00920F6FF9F0080B582B000AF7860FF
:100650003960FFF7B9FFFEE798B500AF084B1B689C
:10066000002B0BD0064B1C684FF000004FF0000130
:100670004FF000024FF00003A04700E0FEE798BDF6
:100680001C01001080B48BB000AFF860B9607A60D4
:100690003B604FF000037B624FF000033B624FF082
:1006A0000003BB614FF000037B614FF00003FB616F
:1006B000FA68484B9A4203D9FA68474B9A4202D9E2
:1006C0004FF0000380E0BB68002B03D0BA68434BB7
:1006D0009A4202D94FF0000376E03B68002B02D02B
:1006E0007B68002B02D14FF000036DE04FF0010357
:1006F0003B6264E0FA683B6AB2FBF3F3BB61BA6940
:10070000374B9A4256D9BA69364B9A4252D84FF073
:1007100006037B6248E0FA683B6AB2FBF3F3BB6115
:10072000BB697A6A02FB03F34FEA4303BB61BA6910
:100730002D4B9A4233D9BA692C4B9A422FD84FF09D
:100740000103FB6127E0BA69FB69B2FBF3F37B614C
:100750007A69274B9A4219D87A69BB68D21A42F251
:1007600010739A4206D9BA687B69D21A42F21073A2
:100770009A420CD87B687A6A1A603B683A6A1A60B7
:100780003B6BFA691A604FF001031DE000BFFB6983
:1007900003F10103FB61FB69FF2BD4D900E000BF2B
:1007A0007B6A03F101037B627A6A40F2FF139A428B
:1007B000B1D900E000BF3B6A03F101033B623B6A31
:1007C0001F2B97D94FF00003184607F12C07BD46A1
:1007D00080BC70473F420F0040787D01FF0D270726
:1007E0009F860100002D3101BF2A64108055C8206A
:1007F000000E270701387FF4FDAF704780B58AB03F
:1008000002AF786039604FF00003BB614FF0000326
:100810007B614FF000033B614FF00003FB604FF042
:100820000003BB604FF00003FB614A4B1B68BB61D8
:10083000BB6923F47043BB61BB6943F4A043BB6154
:10084000444BBA691A603B6803F02003002B60D068
:100850003B6803F01F03404A02FB03F3BB61BA6924
:100860003E4B9A4227D93E4B1B68BB61BB6903F0E4
:100870001003002B1FD1BB6903F02003002B1AD0FB
:10088000BB6923F02003BB61354BBA691A60344B56
:100890001B68BB61BB6903F02003BB61BB69002B14
:1008A000F5D12F4B1B68BB61BB6943F01003BB61E3
:1008B0002B4BBA691A602A4B1B68BB61BB6903F0FA
:1008C0004003002B10D1BB6943F02003BB61244BD4
:1008D000BA691A60224B1B68BB61BB6903F0400315
:1008E000BB61BB69402BF5D11E4B1B68BB61BB696B
:1008F00023F00303BB61BB6943F00103BB61194BE8
:10090000BA691A603B6803F01F03134A02FB03F342
:10091000FB613B6803F04003002B0BD0114B1B68BD
:10092000BB61BB6923F00303BB610E4BBA691A605C
:100930000D4BFB6107F1100207F10C0307F10801F1
:100940000091F8697968FFF79DFE78617B69002B5B
:100950000CD1FEE700C00F4040420F00002D3101D6
:10096000A0C10F400CC10F4000093D005C4B1B684B
:10097000BB61BB6903F00073002B1BD0594B1B6894
:10098000BB61BB6923F00203BB61564BBA691A60B5
:10099000554B4FF0AA021A60534B4FF055021A60A4
:1009A0004F4B1B68BB61BB6903F00073BB61BB6944
:1009B000002BF5D14A4B1B68BB61BB6903F0807308
:1009C000002B1BD0474B1B68BB61BB6923F00103A5
:1009D000BB61444BBA691A60434B4FF0AA021A60DC
:1009E000414B4FF055021A603D4B1B68BB61BB6920
:1009F00003F08073BB61BB69002BF5D13B4BBA6838
:100A000002F1FF321A603A4B4FF000021A60394B84
:100A10004FF000021A60384B7A681A60374B7A68D8
:100A20001A603B6903F1FF333B61FB6803F1FF335D
:100A3000FB60FB684FEA03423B691343BB61304BE9
:100A4000BA691A60284B4FF0AA021A60264B4FF081
:100A500055021A60234B1B68BB61BB6943F001035D
:100A6000BB61204BBA691A601F4B4FF0AA021A6093
:100A70001D4B4FF055021A60194B1B68BB61BB69D7
:100A800003F08073BB61BB69002BF5D0144B1B686E
:100A9000BB61BB6903F08063BB61BB69002BF5D010
:100AA000104B1B68BB61BB6943F00203BB610D4B7C
:100AB000BA691A600C4B4FF0AA021A600A4B4FF049
:100AC00055021A60064B1B68BB61BB6903F00073DB
:100AD000BB61BB69002BF5D007F12007BD4680BD87
:100AE00088C00F4080C00F408CC00F4004C10F4031
:100AF000A8C10F40ACC10F4020010010240100101C
:100B000084C00F4080B483B000AF78607B681F2B37
:100B100002D94FF00F037B60074B074A11687A68D0
:100B20004FF0010000FA02F20A431A6007F10C07C5
:100B3000BD4680BC704700BFC4C00F4098B500AF31
:100B4000084B1B68002B0BD0064B1C684FF00000B5
:100B50004FF000014FF000024FF00003A04700E00B
:100B6000FEE798BD2801001098B500AF084B1B6840
:100B7000002B0BD0064B1C684FF000004FF000011B
:100B80004FF000024FF00003A04700E0FEE798BDE1
:100B90002C01001098B500AF084B5B68002B0BD000
:100BA000064B5C684FF000004FF000014FF0000270
:100BB0004FF00003A04700E0FEE798BD2C010010B5
:100BC00098B500AF084B9B68002B0BD0064B9C6878
:100BD0004FF000004FF000014FF000024FF0000313
:100BE000A04700E0FEE798BD2C01001098B500AFCB
:100BF000084B1B68002B0BD0064B1C684FF0000005
:100C00004FF000014FF000024FF00003A04700E05A
:100C1000FEE798BD3801001098B500AF084B1B687F
:100C2000002B0BD0064B1C684FF000004FF000016A
:100C30004FF000024FF00003A04700E0FEE798BD30
:100C40004001001098B500AF084B1B68002B0BD07B
:100C5000064B1C684FF000004FF000014FF00002FF
:100C60004FF00003A04700E0FEE798BD44010010EC
:100C700098B500AF084B5B68002B0BD0064B5C6847
:100C80004FF000004FF000014FF000024FF0000362
:100C9000A04700E0FEE798BD4401001098B500AF02
:100CA000084B9B68002B0BD0064B9C684FF0000054
:100CB0004FF000014FF000024FF00003A04700E0AA
:100CC000FEE798BD4401001098B500AF084BDB6803
:100CD000002B0BD0064BDC684FF000004FF00001FA
:100CE0004FF000024FF00003A04700E0FEE798BD80
:100CF0004401001098B500AF054B1C684FF0000090
:100D00004FF000014FF000024FF00003A04798BDE4
:100D10005401001098B500AF054B5C684FF000001F
:100D20004FF000014FF000024FF00003A04798BDC4
:100D30005401001098B500AF054B9C684FF00000BF
:100D40004FF000014FF000024FF00003A04798BDA4
:100D50005401001098B500AF054BDC684FF000005F
:100D60004FF000014FF000024FF00003A04798BD84
:040D7000540100101A
:00000001FF
